{
  "abi": [
    {
      "inputs": [],
      "stateMutability": "nonpayable",
      "type": "constructor"
    },
    {
      "anonymous": false,
      "inputs": [
        {
          "indexed": true,
          "internalType": "address",
          "name": "owner",
          "type": "address"
        },
        {
          "indexed": true,
          "internalType": "address",
          "name": "spender",
          "type": "address"
        },
        {
          "indexed": false,
          "internalType": "uint256",
          "name": "value",
          "type": "uint256"
        }
      ],
      "name": "Approval",
      "type": "event"
    },
    {
      "anonymous": false,
      "inputs": [
        {
          "indexed": true,
          "internalType": "address",
          "name": "account",
          "type": "address"
        },
        {
          "indexed": false,
          "internalType": "uint256",
          "name": "amount",
          "type": "uint256"
        }
      ],
      "name": "Deposit",
      "type": "event"
    },
    {
      "anonymous": false,
      "inputs": [
        {
          "indexed": true,
          "internalType": "address",
          "name": "from",
          "type": "address"
        },
        {
          "indexed": true,
          "internalType": "address",
          "name": "to",
          "type": "address"
        },
        {
          "indexed": false,
          "internalType": "uint256",
          "name": "value",
          "type": "uint256"
        }
      ],
      "name": "Transfer",
      "type": "event"
    },
    {
      "anonymous": false,
      "inputs": [
        {
          "indexed": true,
          "internalType": "address",
          "name": "account",
          "type": "address"
        },
        {
          "indexed": false,
          "internalType": "uint256",
          "name": "amount",
          "type": "uint256"
        }
      ],
      "name": "Withdraw",
      "type": "event"
    },
    {
      "inputs": [
        {
          "internalType": "address",
          "name": "owner",
          "type": "address"
        },
        {
          "internalType": "address",
          "name": "spender",
          "type": "address"
        }
      ],
      "name": "allowance",
      "outputs": [
        {
          "internalType": "uint256",
          "name": "",
          "type": "uint256"
        }
      ],
      "stateMutability": "view",
      "type": "function"
    },
    {
      "inputs": [
        {
          "internalType": "address",
          "name": "spender",
          "type": "address"
        },
        {
          "internalType": "uint256",
          "name": "amount",
          "type": "uint256"
        }
      ],
      "name": "approve",
      "outputs": [
        {
          "internalType": "bool",
          "name": "",
          "type": "bool"
        }
      ],
      "stateMutability": "nonpayable",
      "type": "function"
    },
    {
      "inputs": [
        {
          "internalType": "address",
          "name": "account",
          "type": "address"
        }
      ],
      "name": "balanceOf",
      "outputs": [
        {
          "internalType": "uint256",
          "name": "",
          "type": "uint256"
        }
      ],
      "stateMutability": "view",
      "type": "function"
    },
    {
      "inputs": [],
      "name": "decimals",
      "outputs": [
        {
          "internalType": "uint8",
          "name": "",
          "type": "uint8"
        }
      ],
      "stateMutability": "pure",
      "type": "function"
    },
    {
      "inputs": [
        {
          "internalType": "address",
          "name": "account",
          "type": "address"
        }
      ],
      "name": "deposit",
      "outputs": [
        {
          "internalType": "bool",
          "name": "",
          "type": "bool"
        }
      ],
      "stateMutability": "payable",
      "type": "function"
    },
    {
      "inputs": [],
      "name": "name",
      "outputs": [
        {
          "internalType": "string",
          "name": "",
          "type": "string"
        }
      ],
      "stateMutability": "view",
      "type": "function"
    },
    {
      "inputs": [],
      "name": "symbol",
      "outputs": [
        {
          "internalType": "string",
          "name": "",
          "type": "string"
        }
      ],
      "stateMutability": "view",
      "type": "function"
    },
    {
      "inputs": [],
      "name": "totalSupply",
      "outputs": [
        {
          "internalType": "uint256",
          "name": "",
          "type": "uint256"
        }
      ],
      "stateMutability": "view",
      "type": "function"
    },
    {
      "inputs": [
        {
          "internalType": "address",
          "name": "to",
          "type": "address"
        },
        {
          "internalType": "uint256",
          "name": "amount",
          "type": "uint256"
        }
      ],
      "name": "transfer",
      "outputs": [
        {
          "internalType": "bool",
          "name": "",
          "type": "bool"
        }
      ],
      "stateMutability": "nonpayable",
      "type": "function"
    },
    {
      "inputs": [
        {
          "internalType": "address",
          "name": "from",
          "type": "address"
        },
        {
          "internalType": "address",
          "name": "to",
          "type": "address"
        },
        {
          "internalType": "uint256",
          "name": "amount",
          "type": "uint256"
        }
      ],
      "name": "transferFrom",
      "outputs": [
        {
          "internalType": "bool",
          "name": "",
          "type": "bool"
        }
      ],
      "stateMutability": "nonpayable",
      "type": "function"
    },
    {
      "inputs": [
        {
          "internalType": "uint256",
          "name": "_amount",
          "type": "uint256"
        }
      ],
      "name": "withdraw",
      "outputs": [
        {
          "internalType": "bool",
          "name": "",
          "type": "bool"
        }
      ],
      "stateMutability": "nonpayable",
      "type": "function"
    }
  ],
  "bytecode": {
    "object": "0x60806040523480156200001157600080fd5b5060408051808201909152600d81526c2bb930b83832b21022ba3432b960991b60208201526000906200004590826200014f565b506040805180820190915260048152630ae8aa8960e31b60208201526001906200007090826200014f565b50600280546001600160a01b031916339081179091556000908152600460205260409020678ac7230489e80000908190556003556200021b565b634e487b7160e01b600052604160045260246000fd5b600181811c90821680620000d557607f821691505b602082108103620000f657634e487b7160e01b600052602260045260246000fd5b50919050565b601f8211156200014a57600081815260208120601f850160051c81016020861015620001255750805b601f850160051c820191505b81811015620001465782815560010162000131565b5050505b505050565b81516001600160401b038111156200016b576200016b620000aa565b62000183816200017c8454620000c0565b84620000fc565b602080601f831160018114620001bb5760008415620001a25750858301515b600019600386901b1c1916600185901b17855562000146565b600085815260208120601f198616915b82811015620001ec57888601518255948401946001909101908401620001cb565b50858210156200020b5787850151600019600388901b60f8161c191681555b5050505050600190811b01905550565b610a4e806200022b6000396000f3fe60806040526004361061009c5760003560e01c8063313ce56711610064578063313ce5671461015b57806370a082311461017757806395d89b41146101ad578063a9059cbb146101c2578063dd62ed3e146101e2578063f340fa011461022857600080fd5b806306fdde03146100a1578063095ea7b3146100cc57806318160ddd146100fc57806323b872dd1461011b5780632e1a7d4d1461013b575b600080fd5b3480156100ad57600080fd5b506100b661023b565b6040516100c39190610864565b60405180910390f35b3480156100d857600080fd5b506100ec6100e73660046108ce565b6102cd565b60405190151581526020016100c3565b34801561010857600080fd5b506003545b6040519081526020016100c3565b34801561012757600080fd5b506100ec6101363660046108f8565b61033a565b34801561014757600080fd5b506100ec610156366004610934565b61052a565b34801561016757600080fd5b50604051601281526020016100c3565b34801561018357600080fd5b5061010d61019236600461094d565b6001600160a01b031660009081526004602052604090205490565b3480156101b957600080fd5b506100b6610679565b3480156101ce57600080fd5b506100ec6101dd3660046108ce565b610688565b3480156101ee57600080fd5b5061010d6101fd36600461096f565b6001600160a01b03918216600090815260056020908152604080832093909416825291909152205490565b6100ec61023636600461094d565b610782565b60606000805461024a906109a2565b80601f0160208091040260200160405190810160405280929190818152602001828054610276906109a2565b80156102c35780601f10610298576101008083540402835291602001916102c3565b820191906000526020600020905b8154815290600101906020018083116102a657829003601f168201915b5050505050905090565b3360008181526005602090815260408083206001600160a01b038716808552925280832085905551919290917f8c5be1e5ebec7d5bd14f71427d1e84f3dd0314c0f7b2291e5b200ac8c7c3b925906103289086815260200190565b60405180910390a35060015b92915050565b6001600160a01b0383166000908152600560209081526040808320338452909152812054828110156103b35760405162461bcd60e51b815260206004820152601b60248201527f4552524f523a206d79416c6c6f77616e6365203c20616d6f756e74000000000060448201526064015b60405180910390fd5b6103bd83826109f2565b6001600160a01b0386166000818152600560209081526040808320338085529252909120929092557f8c5be1e5ebec7d5bd14f71427d1e84f3dd0314c0f7b2291e5b200ac8c7c3b92561041086856109f2565b60405190815260200160405180910390a36001600160a01b0385166000908152600460205260409020548381101561048a5760405162461bcd60e51b815260206004820152601b60248201527f4552524f523a2066726f6d42616c616e6365203c20616d6f756e74000000000060448201526064016103aa565b61049484826109f2565b6001600160a01b0380881660009081526004602052604080822093909355908716815290812080548692906104ca908490610a05565b92505081905550846001600160a01b0316866001600160a01b03167fddf252ad1be2c89b69c2b068fc378daa952ba7f163c4a11628f55a4df523b3ef8660405161051691815260200190565b60405180910390a350600195945050505050565b6000336105795760405162461bcd60e51b815260206004820152601e60248201527f4552524f523a2057697468647261772066726f6d20616464726573732030000060448201526064016103aa565b33600090815260046020526040902054828110156105d95760405162461bcd60e51b815260206004820152601c60248201527f4552524f523a206e6f206d6f726520746f6b656e20746f206275726e0000000060448201526064016103aa565b6105e383826109f2565b33600090815260046020526040812091909155600380548592906106089084906109f2565b9091555050604051339084156108fc029085906000818181858888f1935050505015801561063a573d6000803e3d6000fd5b5060405183815233907f884edad9ce6fa2440d8a54cc123490eb96d2768479d49ff9c7366125a94243649060200160405180910390a250600192915050565b60606001805461024a906109a2565b33600090815260046020526040812054828110156106e85760405162461bcd60e51b815260206004820152601760248201527f4552524f523a204e6f7420656e6f75676820746f6b656e00000000000000000060448201526064016103aa565b6106f283826109f2565b33600090815260046020526040808220929092556001600160a01b0386168152205461071f908490610a05565b6001600160a01b0385166000818152600460205260409081902092909255905133907fddf252ad1be2c89b69c2b068fc378daa952ba7f163c4a11628f55a4df523b3ef906107709087815260200190565b60405180910390a35060019392505050565b60006001600160a01b0382166107da5760405162461bcd60e51b815260206004820152601860248201527f4552524f523a206d696e7420746f20616464726573732030000000000000000060448201526064016103aa565b34600360008282546107ec9190610a05565b90915550506001600160a01b03821660009081526004602052604081208054349290610819908490610a05565b90915550506040513481526001600160a01b038316907fe1fffcc4923d04b559f4d29a8bfc6cda04eb5b0d3c460751c2402c5c5cc9109c9060200160405180910390a2506001919050565b600060208083528351808285015260005b8181101561089157858101830151858201604001528201610875565b506000604082860101526040601f19601f8301168501019250505092915050565b80356001600160a01b03811681146108c957600080fd5b919050565b600080604083850312156108e157600080fd5b6108ea836108b2565b946020939093013593505050565b60008060006060848603121561090d57600080fd5b610916846108b2565b9250610924602085016108b2565b9150604084013590509250925092565b60006020828403121561094657600080fd5b5035919050565b60006020828403121561095f57600080fd5b610968826108b2565b9392505050565b6000806040838503121561098257600080fd5b61098b836108b2565b9150610999602084016108b2565b90509250929050565b600181811c908216806109b657607f821691505b6020821081036109d657634e487b7160e01b600052602260045260246000fd5b50919050565b634e487b7160e01b600052601160045260246000fd5b81810381811115610334576103346109dc565b80820180821115610334576103346109dc56fea2646970667358221220144846ee3671742bc51671ee193f0b8de9e40846b934d4b1f6f0252da7eb87a264736f6c63430008150033",
    "linkReferences": {}
  },
  "methodIdentifiers": {
    "allowance(address,address)": "dd62ed3e",
    "approve(address,uint256)": "095ea7b3",
    "balanceOf(address)": "70a08231",
    "decimals()": "313ce567",
    "deposit(address)": "f340fa01",
    "name()": "06fdde03",
    "symbol()": "95d89b41",
    "totalSupply()": "18160ddd",
    "transfer(address,uint256)": "a9059cbb",
    "transferFrom(address,address,uint256)": "23b872dd",
    "withdraw(uint256)": "2e1a7d4d"
  },
  "id": 18
}