{
  "abi": [
    {
      "inputs": [],
      "stateMutability": "nonpayable",
      "type": "constructor"
    },
    {
      "anonymous": false,
      "inputs": [
        {
          "indexed": true,
          "internalType": "address",
          "name": "owner",
          "type": "address"
        },
        {
          "indexed": true,
          "internalType": "address",
          "name": "spender",
          "type": "address"
        },
        {
          "indexed": false,
          "internalType": "uint256",
          "name": "value",
          "type": "uint256"
        }
      ],
      "name": "Approval",
      "type": "event"
    },
    {
      "anonymous": false,
      "inputs": [
        {
          "indexed": true,
          "internalType": "address",
          "name": "account",
          "type": "address"
        },
        {
          "indexed": false,
          "internalType": "uint256",
          "name": "amount",
          "type": "uint256"
        }
      ],
      "name": "Deposit",
      "type": "event"
    },
    {
      "anonymous": false,
      "inputs": [
        {
          "indexed": true,
          "internalType": "address",
          "name": "from",
          "type": "address"
        },
        {
          "indexed": true,
          "internalType": "address",
          "name": "to",
          "type": "address"
        },
        {
          "indexed": false,
          "internalType": "uint256",
          "name": "value",
          "type": "uint256"
        }
      ],
      "name": "Transfer",
      "type": "event"
    },
    {
      "anonymous": false,
      "inputs": [
        {
          "indexed": true,
          "internalType": "address",
          "name": "account",
          "type": "address"
        },
        {
          "indexed": false,
          "internalType": "uint256",
          "name": "amount",
          "type": "uint256"
        }
      ],
      "name": "Withdraw",
      "type": "event"
    },
    {
      "inputs": [
        {
          "internalType": "address",
          "name": "owner",
          "type": "address"
        },
        {
          "internalType": "address",
          "name": "spender",
          "type": "address"
        }
      ],
      "name": "allowance",
      "outputs": [
        {
          "internalType": "uint256",
          "name": "",
          "type": "uint256"
        }
      ],
      "stateMutability": "view",
      "type": "function"
    },
    {
      "inputs": [
        {
          "internalType": "address",
          "name": "spender",
          "type": "address"
        },
        {
          "internalType": "uint256",
          "name": "amount",
          "type": "uint256"
        }
      ],
      "name": "approve",
      "outputs": [
        {
          "internalType": "bool",
          "name": "",
          "type": "bool"
        }
      ],
      "stateMutability": "nonpayable",
      "type": "function"
    },
    {
      "inputs": [
        {
          "internalType": "address",
          "name": "account",
          "type": "address"
        }
      ],
      "name": "balanceOf",
      "outputs": [
        {
          "internalType": "uint256",
          "name": "",
          "type": "uint256"
        }
      ],
      "stateMutability": "view",
      "type": "function"
    },
    {
      "inputs": [
        {
          "internalType": "address",
          "name": "account",
          "type": "address"
        },
        {
          "internalType": "uint256",
          "name": "amount",
          "type": "uint256"
        }
      ],
      "name": "burn",
      "outputs": [
        {
          "internalType": "bool",
          "name": "",
          "type": "bool"
        }
      ],
      "stateMutability": "nonpayable",
      "type": "function"
    },
    {
      "inputs": [],
      "name": "decimals",
      "outputs": [
        {
          "internalType": "uint8",
          "name": "",
          "type": "uint8"
        }
      ],
      "stateMutability": "pure",
      "type": "function"
    },
    {
      "inputs": [
        {
          "internalType": "address",
          "name": "account",
          "type": "address"
        }
      ],
      "name": "deposit",
      "outputs": [
        {
          "internalType": "bool",
          "name": "",
          "type": "bool"
        }
      ],
      "stateMutability": "payable",
      "type": "function"
    },
    {
      "inputs": [
        {
          "internalType": "address",
          "name": "account",
          "type": "address"
        },
        {
          "internalType": "uint256",
          "name": "amount",
          "type": "uint256"
        }
      ],
      "name": "mint",
      "outputs": [
        {
          "internalType": "bool",
          "name": "",
          "type": "bool"
        }
      ],
      "stateMutability": "nonpayable",
      "type": "function"
    },
    {
      "inputs": [],
      "name": "name",
      "outputs": [
        {
          "internalType": "string",
          "name": "",
          "type": "string"
        }
      ],
      "stateMutability": "view",
      "type": "function"
    },
    {
      "inputs": [],
      "name": "symbol",
      "outputs": [
        {
          "internalType": "string",
          "name": "",
          "type": "string"
        }
      ],
      "stateMutability": "view",
      "type": "function"
    },
    {
      "inputs": [],
      "name": "totalSupply",
      "outputs": [
        {
          "internalType": "uint256",
          "name": "",
          "type": "uint256"
        }
      ],
      "stateMutability": "view",
      "type": "function"
    },
    {
      "inputs": [
        {
          "internalType": "address",
          "name": "to",
          "type": "address"
        },
        {
          "internalType": "uint256",
          "name": "amount",
          "type": "uint256"
        }
      ],
      "name": "transfer",
      "outputs": [
        {
          "internalType": "bool",
          "name": "",
          "type": "bool"
        }
      ],
      "stateMutability": "nonpayable",
      "type": "function"
    },
    {
      "inputs": [
        {
          "internalType": "address",
          "name": "from",
          "type": "address"
        },
        {
          "internalType": "address",
          "name": "to",
          "type": "address"
        },
        {
          "internalType": "uint256",
          "name": "amount",
          "type": "uint256"
        }
      ],
      "name": "transferFrom",
      "outputs": [
        {
          "internalType": "bool",
          "name": "",
          "type": "bool"
        }
      ],
      "stateMutability": "nonpayable",
      "type": "function"
    },
    {
      "inputs": [
        {
          "internalType": "uint256",
          "name": "_amount",
          "type": "uint256"
        }
      ],
      "name": "withdraw",
      "outputs": [
        {
          "internalType": "bool",
          "name": "",
          "type": "bool"
        }
      ],
      "stateMutability": "nonpayable",
      "type": "function"
    }
  ],
  "bytecode": {
    "object": "0x60806040523480156200001157600080fd5b5060408051808201909152600d81526c2bb930b83832b21022ba3432b960991b60208201526000906200004590826200014f565b506040805180820190915260048152630ae8aa8960e31b60208201526001906200007090826200014f565b50600280546001600160a01b031916339081179091556000908152600460205260409020678ac7230489e80000908190556003556200021b565b634e487b7160e01b600052604160045260246000fd5b600181811c90821680620000d557607f821691505b602082108103620000f657634e487b7160e01b600052602260045260246000fd5b50919050565b601f8211156200014a57600081815260208120601f850160051c81016020861015620001255750805b601f850160051c820191505b81811015620001465782815560010162000131565b5050505b505050565b81516001600160401b038111156200016b576200016b620000aa565b62000183816200017c8454620000c0565b84620000fc565b602080601f831160018114620001bb5760008415620001a25750858301515b600019600386901b1c1916600185901b17855562000146565b600085815260208120601f198616915b82811015620001ec57888601518255948401946001909101908401620001cb565b50858210156200020b5787850151600019600388901b60f8161c191681555b5050505050600190811b01905550565b610bb3806200022b6000396000f3fe6080604052600436106100c25760003560e01c806340c10f191161007f5780639dc29fac116100595780639dc29fac14610208578063a9059cbb14610228578063dd62ed3e14610248578063f340fa011461028e57600080fd5b806340c10f191461019d57806370a08231146101bd57806395d89b41146101f357600080fd5b806306fdde03146100c7578063095ea7b3146100f257806318160ddd1461012257806323b872dd146101415780632e1a7d4d14610161578063313ce56714610181575b600080fd5b3480156100d357600080fd5b506100dc6102a1565b6040516100e991906109a9565b60405180910390f35b3480156100fe57600080fd5b5061011261010d366004610a13565b610333565b60405190151581526020016100e9565b34801561012e57600080fd5b506003545b6040519081526020016100e9565b34801561014d57600080fd5b5061011261015c366004610a3d565b6103a0565b34801561016d57600080fd5b5061011261017c366004610a79565b61057e565b34801561018d57600080fd5b50604051601281526020016100e9565b3480156101a957600080fd5b506101126101b8366004610a13565b6105f7565b3480156101c957600080fd5b506101336101d8366004610a92565b6001600160a01b031660009081526004602052604090205490565b3480156101ff57600080fd5b506100dc6106ba565b34801561021457600080fd5b50610112610223366004610a13565b6106c9565b34801561023457600080fd5b50610112610243366004610a13565b610801565b34801561025457600080fd5b50610133610263366004610ab4565b6001600160a01b03918216600090815260056020908152604080832093909416825291909152205490565b61011261029c366004610a92565b6108d7565b6060600080546102b090610ae7565b80601f01602080910402602001604051908101604052809291908181526020018280546102dc90610ae7565b80156103295780601f106102fe57610100808354040283529160200191610329565b820191906000526020600020905b81548152906001019060200180831161030c57829003601f168201915b5050505050905090565b3360008181526005602090815260408083206001600160a01b038716808552925280832085905551919290917f8c5be1e5ebec7d5bd14f71427d1e84f3dd0314c0f7b2291e5b200ac8c7c3b9259061038e9086815260200190565b60405180910390a35060015b92915050565b6001600160a01b0383166000908152600560209081526040808320338452909152812054828110156104195760405162461bcd60e51b815260206004820152601b60248201527f4552524f523a206d79416c6c6f77616e6365203c20616d6f756e74000000000060448201526064015b60405180910390fd5b6104238382610b37565b6001600160a01b0386166000818152600560209081526040808320338085529252909120929092557f8c5be1e5ebec7d5bd14f71427d1e84f3dd0314c0f7b2291e5b200ac8c7c3b9256104768685610b37565b60405190815260200160405180910390a36001600160a01b038516600090815260046020526040902054838110156104f05760405162461bcd60e51b815260206004820152601b60248201527f4552524f523a2066726f6d42616c616e6365203c20616d6f756e7400000000006044820152606401610410565b6104fa8482610b37565b6001600160a01b038088166000908152600460205260408082209390935590871681529081208054869290610530908490610b4a565b92505081905550846001600160a01b0316866001600160a01b0316600080516020610b5e8339815191528660405161056a91815260200190565b60405180910390a350600195945050505050565b600061058a33836106c9565b50604051339083156108fc029084906000818181858888f193505050501580156105b8573d6000803e3d6000fd5b5060405182815233907f884edad9ce6fa2440d8a54cc123490eb96d2768479d49ff9c7366125a9424364906020015b60405180910390a2506001919050565b60006001600160a01b03831661064a5760405162461bcd60e51b815260206004820152601860248201527704552524f523a206d696e7420746f206164647265737320360441b6044820152606401610410565b816003600082825461065c9190610b4a565b90915550506001600160a01b03831660009081526004602052604081208054849290610689908490610b4a565b90915550506040518281526001600160a01b03841690600090600080516020610b5e8339815191529060200161038e565b6060600180546102b090610ae7565b60006001600160a01b0383166107215760405162461bcd60e51b815260206004820152601a60248201527f4552524f523a206275726e2066726f6d206164647265737320300000000000006044820152606401610410565b6001600160a01b0383166000908152600460205260409020548281101561078a5760405162461bcd60e51b815260206004820152601c60248201527f4552524f523a206e6f206d6f726520746f6b656e20746f206275726e000000006044820152606401610410565b6107948382610b37565b6001600160a01b038516600090815260046020526040812091909155600380548592906107c2908490610b37565b90915550506040518381526000906001600160a01b03861690600080516020610b5e833981519152906020015b60405180910390a35060019392505050565b33600090815260046020526040812054828110156108615760405162461bcd60e51b815260206004820152601760248201527f4552524f523a204e6f7420656e6f75676820746f6b656e0000000000000000006044820152606401610410565b61086b8382610b37565b33600090815260046020526040808220929092556001600160a01b03861681522054610898908490610b4a565b6001600160a01b038516600081815260046020526040908190209290925590513390600080516020610b5e833981519152906107ef9087815260200190565b60006001600160a01b03821661092a5760405162461bcd60e51b815260206004820152601860248201527704552524f523a206d696e7420746f206164647265737320360441b6044820152606401610410565b346003600082825461093c9190610b4a565b90915550506001600160a01b03821660009081526004602052604081208054349290610969908490610b4a565b90915550506040513481526001600160a01b038316907fe1fffcc4923d04b559f4d29a8bfc6cda04eb5b0d3c460751c2402c5c5cc9109c906020016105e7565b600060208083528351808285015260005b818110156109d6578581018301518582016040015282016109ba565b506000604082860101526040601f19601f8301168501019250505092915050565b80356001600160a01b0381168114610a0e57600080fd5b919050565b60008060408385031215610a2657600080fd5b610a2f836109f7565b946020939093013593505050565b600080600060608486031215610a5257600080fd5b610a5b846109f7565b9250610a69602085016109f7565b9150604084013590509250925092565b600060208284031215610a8b57600080fd5b5035919050565b600060208284031215610aa457600080fd5b610aad826109f7565b9392505050565b60008060408385031215610ac757600080fd5b610ad0836109f7565b9150610ade602084016109f7565b90509250929050565b600181811c90821680610afb57607f821691505b602082108103610b1b57634e487b7160e01b600052602260045260246000fd5b50919050565b634e487b7160e01b600052601160045260246000fd5b8181038181111561039a5761039a610b21565b8082018082111561039a5761039a610b2156feddf252ad1be2c89b69c2b068fc378daa952ba7f163c4a11628f55a4df523b3efa2646970667358221220b63b18752a031325734875b9614ab34090437138093c76d8fa6522b89a9f282864736f6c63430008150033",
    "linkReferences": {}
  },
  "methodIdentifiers": {
    "allowance(address,address)": "dd62ed3e",
    "approve(address,uint256)": "095ea7b3",
    "balanceOf(address)": "70a08231",
    "burn(address,uint256)": "9dc29fac",
    "decimals()": "313ce567",
    "deposit(address)": "f340fa01",
    "mint(address,uint256)": "40c10f19",
    "name()": "06fdde03",
    "symbol()": "95d89b41",
    "totalSupply()": "18160ddd",
    "transfer(address,uint256)": "a9059cbb",
    "transferFrom(address,address,uint256)": "23b872dd",
    "withdraw(uint256)": "2e1a7d4d"
  },
  "id": 20
}